:100000000C9467030C9484030C9484030C94840371
:100010000C9484030C9484030C9484030C94840344
:100020000C9484030C9484030C9484030C94840334
:100030000C9484030C94B8040C9484030C948403EF
:100040000C9484030C9484030C94BC120C948403CD
:100050000C9484030C9484030C9484030C94840304
:100060000C9484030C94840329122C122F12321244
:10007000351238123B123E124112441247124A12F4
:100080004D12501268126B126E12711274127712A6
:10009000525820BCDEADBCDDC1ADB32E2E2E0A0001
:1000A000564F4C5400434F554E54002727202027CD
:1000B0000A0A3C2D3E3A53544152542F53544F5048
:1000C0000057415645204F55540A0A202020485ACF
:1000D0000A3C2D3E3A53454C454354004348415257
:1000E00041000000004845580000000000000000EA
:1000F0000000000000000043414E43454C0000005A
:100100003132387836340000003634783332646F58
:1001100074003332783136646F74000000000000E0
:100120000000000032343030425053000039363085
:100130003042505300003338343030425053003591
:1001400037363030425053003131352E326B3F005C
:10015000000000000000000000001C3E7763773EB6
:100160001CBBDDBCDEB9DEDD20CCB320CBAEB3BC26
:10017000DEC3DED300D3BCDE20CBAEB3BCDEC3DE39
:10018000D30000000000000000B6B2C3DD20CBAEFB
:10019000B3BCDEC3DED300000000000000BDCCDF36
:1001A000D7B2C420CCB320CBAEB3BCDEC3DED30009
:1001B00000BCDEB6DD20A620CAB6D8CFBD00000048
:1001C0000000000000B1C5DBB8DE20BCDEAEB2BD71
:1001D000C3A8AFB820C3BDC4002832352941444369
:1001E000322F50433220C6ADB3D8AEB800283229E2
:1001F00052582F504430205541525420525800003C
:1002000000B1B8BCAEDDB9DEB0D100000000000026
:100210000000000000C4DEAFC420B6DE20CCB4C0B5
:10022000D820CDAFC0D8BDD90028313629504232B0
:100230002D3E535045414B455200000000BDB8DBF8
:10024000B0D9CBAEB3BCDE20C920BCDEAFB9DD0077
:1002500000333635C6C120C3DE2031BCADB300004B
:100260000000000000B6DED2DD20A6203930C4DE5A
:10027000B6B2C3DD20BCCFBD00454550524F4D0046
:100280000000000000000000000000000055415286
:10029000542054582041444A555354000000000053
:1002A00000283137295042332D3E545800000000B9
:1002B0000000000000283136290000000000000086
:1002C0000000000000000000007265637620424DCF
:1002D00050000000000000000000000000000000CE
:1002E000000000000000000000000000000000000E
:1002F00000B7DEBCDE3344000000C3B7BDC400005D
:10030000000000BBDDB6B80000000000424F554EB3
:100310004400000000532E574154434800004A4F08
:1003200059535449434B0056204D45544552000003
:10033000BCD8B1D90000000000535046494748548A
:1003400000004C49464547414D4500574156452020
:100350004F555400BDB8DBB0D9000000004F5242E9
:10036000495400000000B6B2C3DD000000000045A3
:100370004550524F4D0000004241554452415445B2
:100380000054582044415441000046524F4D5649B4
:1003900045570046524F4D20575254005245435640
:1003A00020424D50000000000000000000004449C1
:1003B00059204C434400000000000000000000B938
:1003C000AFC3B20000000000000000000000000009
:1003D0002E2E2E4558495400000000000000000059
:1003E0000020204E49434F54414B2E434F4D200097
:1003F0000000080C7E7F7E0C0847414D454F564556
:10040000520052454144590014141C1C7F7F5D3E2C
:100410007F417F7F63363E7F637F7F3663361C1C60
:100420001C1C1C08492A0063002A49081C1C1C1CAF
:100430001C360004090D12161B1F23282C303539D9
:100440003D42464A4E53575B5F63676B6F73777BE2
:100450007F83878A8E9295999CA0A3A7AAADB0B4FA
:10046000B7BABDC0C3C5C8CBCDD0D3D5D7DADCDED3
:10047000E0E2E4E6E8EAECEDEFF0F2F3F4F5F6F7AB
:10048000F8F9FAFBFCFCFDFDFDFEFEFEFF0000009E
:100490000444040AA00004E4E404EC6C082482048C
:1004A000ACA60480000488840422240A4E4A044E28
:1004B00044000048000E0000000402444804AAA4BE
:1004C0000262220C248E0C2C2C0AAE220E8C2C06DE
:1004D0008CA40E224804A4A404A62C004040004092
:1004E0004802484200E0E00842480C24040E2EAEC8
:1004F00004AAEA0CACAC0688860CAAAC0E8E8E0E52
:100500008E88068AA60AAEAA0E444E06222C08AC95
:10051000AA08888E0AEAAA0AEEEA0EAAAE0CAC88ED
:1005200004AAC60CACAA06842C0E44440AAAAE0A3D
:10053000AAA40AAAEA0AA4AA0AA4440E248E06447B
:10054000460A4EE40C444C04A00000000E08400093
:1005500000E2EE008EAE0006860026A6006E860043
:1005600064E400EE2C088CAA04044404044C088AB9
:10057000CA00444600CEEE000CAA004AA400CAC835
:10058000006A6200AC8800686C004E4600AAAE00AB
:10059000AAA400AAEA000A4A00AA4400E24E0444BF
:1005A000440648460C424C05A00000000000000034
:1005B000000000000000000000000000000000003B
:1005C000000000000000000000000000000000002B
:1005D000000000000000000000000000000000001B
:1005E000000000000000000000000000000000000B
:1005F00000000000000000000000000000000000FB
:1006000000000000000000000000000000000000EA
:10061000000EAE64400000022E0000840066000F51
:100620001F1600E2480024C4004A24000E4E004E6B
:10063000C4004F54000C4E062626000A1E000E1061
:100640000F15480126A202F9160F222F02F26A04A2
:10065000F59204F4F4075916047A2400F11F05F505
:10066000160C0D1E00F26904F547095124007D3671
:100670000F2F2C0AA0160F0F2C04465402F22C0048
:10068000600F0F152D02F6B200112C00AA9908F880
:100690008700F12C0004A104F4DD00F1620E0E0EBF
:1006A00004889F0152580F4F4704F54400E22F0F72
:1006B0001F1F0F0F1E00991600AAAB0889AC00F986
:1006C0009F00F91E01D11E0AA00004A400001124FD
:1006D0001FBECFEFD8E0DEBFCDBF11E0A0E0B1E09C
:1006E000E4E8F4E302C005900D92A232B107D9F715
:1006F00025E0A2E2B1E001C01D92A835B207E1F702
:100700000E94AC110C940F1A0C940000EAE7F0E080
:1007100096E8908380937C008081806180838081D3
:1007200080648083808184FFFDCF809178009091E8
:10073000790008958091310181700E948603992388
:100740000CF4039695958795959587958058910912
:1007500020913101223030F02FEF30E0A901481B09
:10076000590BCA01089580913101809581700E94D2
:10077000860399230CF4039695958795959587950F
:10078000209131012150223030F42FEF30E0A901C7
:10079000481B590BCA0180580895CF930E949A03B1
:1007A0000E949A03803C24F0813424F4C0E003C00A
:1007B000C8E001C0C4E00E94B3030E94B303803CC0
:1007C00024F0813424F480E003C081E001C082E0A1
:1007D0008C2BCF910895CF93C0E001C0C0E00E9460
:1007E000CD038111FBCFCF5FCC33C8F3CF910895F8
:1007F000CF93DF930E94EB03D0E00E94CD03C82F7C
:10080000882341F0DF5F8EE190E00E948B15D330AA
:10081000A0F306C08EE190E00E948B15D0E0EDCFF2
:100820008C2FDF91CF91089588E000008150E9F787
:100830000895449A982F91609BB980FF02C0439A13
:1008400001C043980E94140444980E94140408951F
:1008500095B19C7F95B9811102C0289A03C081305F
:1008600009F4299A0E941404089580912401882390
:1008700009F44BC0809100018034F0F48091220192
:10088000909123019C012F5F3F4F309323012093D0
:100890002201FC01E85AFE4F80810E9419048091D8
:1008A00000018F5F809300018091220190912301CC
:1008B0008115944034F5089580912201909123018F
:1008C000992314F481589F4F880F892F881F990B03
:1008D00080932501809126010E94280445988091EB
:1008E000250188540E94190480E40E941904459A45
:1008F0009091260181E089278093260110920001C2
:100900000895109223011092220108958AB18E6FEA
:100910008AB987B1886387B984B1836084B98FEF5E
:100920000E94280444988EE190E00E948B1545981F
:1009300080E00E94280480EC0E9419048FE30E944A
:1009400019048FEF0E94280481E00E94280480ECA3
:100950000E9419048FE30E9419048FEF0E9428045B
:10096000459A81E08093240108958093240108959D
:100970001F920F920FB60F9211242F933F934F9314
:100980005F936F937F938F939F93AF93BF93EF93F7
:10099000FF930E94350480913401909135010196B6
:1009A000863021E092072CF4909335018093340136
:1009B00009C01092350110923401809132018F5F8D
:1009C00080933201FF91EF91BF91AF919F918F91F1
:1009D0007F916F915F914F913F912F910F900FBE3B
:1009E0000F901F9018950F931F93CF93DF93C8E537
:1009F000D1E008E515E089910E943513C017D107B1
:100A0000D1F7DF91CF911F910F910895FF920F932E
:100A10001F93CF93DF9300E010E00F2EF3E0FF2E43
:100A2000F02D37C086959A01200F311F332314F41F
:100A3000295F3F4FF901F595E795F595E795F59510
:100A4000E795F695FE2FEE27F795E795E85AFE4FC6
:100A5000EC0FFD1F90819F2109F08068FF0CFF0CB7
:100A600021F40F2EF3E0FF2EF02D4E5F5F4F40314B
:100A70005105C1F60E9435132296C038D10521F0E8
:100A800040E050E080E0CECF005F1F4F0034110502
:100A900019F0C0E0D0E0F4CFDF91CF911F910F911A
:100AA000FF900895C0E0D0E62D2F30E0F901E85A1C
:100AB000FE4F28583E4FCC0F80818F7009F0C160E7
:100AC0003496E217F307B9F78C2F0E943513D052F2
:100AD000EBCF80912701823039F0833041F08130B3
:100AE00041F40E94F30408950E94060508950E94AF
:100AF0005205089590932E0180932D010E9469055F
:100B000080912D0190912E01892B41F00E94681552
:100B100080912D0190912E01892BC1F70895CF93DB
:100B2000DF93EC01198218820E94F4150E9488124A
:100B300090E09C01220F331F820F931F9B838A83B7
:100B400085E00E94881290E001969D838C8385E069
:100B50000E94881290E0809590959F838E83DF910C
:100B6000CF9108952F923F924F925F926F927F9212
:100B70008F929F92AF92BF92CF92DF92EF92FF92AD
:100B80000F931F93CF93DF93CDB7DEB7C655D1092F
:100B90000FB6F894DEBF0FBECDBF0E94F115C82E70
:100BA000D12C21E0C21AD1080E94F415A82EB12C34
:100BB0007E0131E5E30EF11C8E010F5F1F4FC8016E
:100BC0000E948F05085F1F4F0E151F05C1F7C50155
:100BD00004979C01220F331FA901480F591F6596E6
:100BE0005FAF4EAF6597C601880F991FFC01EC0DF2
:100BF000FD1D6796FFAFEEAF679780E00E94B504DA
:100C00000E94F7159E012F5F3F4F3901212C2301D0
:100C1000F301E080F180A280B38084819581E80EA9
:100C2000F91E86819781A80EB91E8E010F5F1F4F96
:100C3000312C231409F451C063961FAF0EAF639794
:100C4000F801808191816701C81AD90A8280938056
:100C5000C6010E94481945970CF03FC0950128191C
:100C600039094901C9010E9448194597B4F5C601DF
:100C70000E944E196C0183E00E94881290E0019658
:100C80008C9D90018D9D300D9C9D300D1124F201A5
:100C900035832483C4010E944E196C0183E00E94B5
:100CA000881290E001968C9D90018D9D300D9C9D49
:100CB000300D1124F201378326838481958191952B
:100CC000819591096396EEADFFAD6397958384831B
:100CD000319521953109378326833394085F1F4F5F
:100CE000FAE03F12A6CF82E00E948812882331F0FA
:100CF000F2018681978101969783868365962EAD52
:100D00003FAD65972A153B0544F4F2018681978132
:100D100091958195910997838683F201F182E08212
:100D2000B382A282C50163E070E00E948819262F79
:100D3000C70163E070E00E948819862F4AE551E000
:100D4000622F0E94D018FF203CF067962EAD3FAD79
:100D500067972E153F051CF4C2010E948F0523944E
:100D600038E0630E711C4AE0241251CF81E00E94EA
:100D7000B50489E190E00E947A050E94B303815C8A
:100D80008F3708F43ACFCA5ADF4F0FB6F894DEBF58
:100D90000FBECDBFDF91CF911F910F91FF90EF90CC
:100DA000DF90CF90BF90AF909F908F907F906F908B
:100DB0005F904F903F902F9008951F93CF93DF93B4
:100DC000EC010E94F415182F80E09FEF998388832F
:100DD00084E10E94881290E04E969D838C8384E289
:100DE0000E94881290E09C01220F331F880F991FE8
:100DF000880F991F880F991F820F931F99878887E3
:100E000086E00E948812282F30E2139FC00111242F
:100E100066E070E00E948819269FC001279F900D10
:100E200011249B838A838DE00E94881290E00797AB
:100E30009F838E838DE00E94881290E006979B87A7
:100E40008A8788E00E94881290E004969D878C87AC
:100E5000DF91CF911F9108952F923F924F925F9211
:100E60006F927F928F929F92AF92BF92CF92DF92BA
:100E7000EF92FF920F931F93CF93DF9300D000D098
:100E800000D0CDB7DEB77C012B013A0149015801F2
:100E9000FC01808191818F3FFFEF9F0709F45FC0C4
:100EA00019821A821B821C82C12CD12C9401280F1A
:100EB000391F3E832D83C9010E94D715F701228176
:100EC000289F8001299F100D11248D819E810E94F1
:100ED0009E150A9D10010B9D300C1A9D300C11249B
:100EE000232C330C330825942594240C351CF7014E
:100EF0002281AC01249FC001259F900D11248A9D61
:100F0000F0018B9DF00D9A9DF00D1124EF2FFF0F36
:100F1000FF0BE595E595E60DF71DFE83ED831C14AB
:100F20001D044CF401E029813A814B815C81BF01B1
:100F3000C1010E94D716F3E0EF0EF11C2FEFC21A89
:100F4000D20AF701808191812B823C82FD81F98355
:100F50002E812A838F3F3FEF930709F0A7CF269674
:100F60000FB6F894DEBF0FBECDBFDF91CF911F91BA
:100F70000F91FF90EF90DF90CF90BF90AF909F9038
:100F80008F907F906F905F904F903F902F9008953B
:100F90008F929F92AF92BF92CF92DF92EF92FF9289
:100FA0000F931F93CF93DF93CDB7DEB7CC58D10902
:100FB0000FB6F894DEBF0FBECDBF8E010F5F1F4F7F
:100FC0007E012DE8E20EF11CC8010E94DD06025FE1
:100FD0001F4FE016F106C1F75E018DE8A80EB11CA7
:100FE00080E00E94B5040E94F715FE0131967F0152
:100FF000F701C080D18084819581C80ED91EC601B9
:1010000093958130924120F0C7010E94DD0646C0D1
:10101000F7018280938086819781880E991E0485CE
:10102000158520853185A40155954795559547959A
:10103000559547955595479555954795B60175959D
:101040006795759567957595679575956795759588
:10105000679581E091E00E942C07F701D182C08260
:10106000938282822085318582859385820F931FAA
:101070008836F1E09F0724F4F7019187808705C047
:1010800088569140F70191878087F7018085918587
:10109000992324F488599E4F91878087FEE0EF0EB4
:1010A000F11CEA14FB0409F0A3CF81E00E94B5040F
:1010B00084E690E00E947A050E94B303815C8F373A
:1010C00008F48ECFC457DF4F0FB6F894DEBF0FBEC3
:1010D000CDBFDF91CF911F910F91FF90EF90DF90E7
:1010E000CF90BF90AF909F908F9008952F923F9296
:1010F0004F925F926F927F928F929F92AF92BF9228
:10110000CF92DF92EF92FF920F931F93CF93DF93D3
:10111000CDB7DEB7A5970FB6F894DEBF0FBECDBF33
:1011200088E0E2E1F1E0DE01119601900D928A95EE
:10113000E1F788E0EAE1F1E0DE01199601900D9215
:101140008A95E1F70E94F115813438F420E430E00B
:101150003C8F2B8F1A8E198E06C01C8E1B8E80E43E
:1011600090E09A8F898F00E911E082E30E94881253
:10117000F82E82E30E948812682F880F770B41E0D7
:101180008F2DFF0C990B0E9466160150110969F70B
:101190001E8F0D8F19A2D12C1F8E18A24E01F1E1C6
:1011A0008F0E911C22242394422C04C01C8F0B8F81
:1011B000FA8EE98E80E00E94B5046B8D6E5C898D9D
:1011C0000E94BE178D8D9E8D0E94661889A19D2D4F
:1011D0009C012E5C3F4F3BA32AA35C01EB8DFC8D51
:1011E000E81BF90BFDA3ECA34FC0F80191918F010F
:1011F000572C622CF70181917F01B501690F711D98
:1012000097FD7A959601280F311D87FD3A95C90102
:101210000E940416882321F0339433E0331518F02C
:101220008016910611F782E0381208C06F89788D18
:10123000852D962D0E940416482F04C0442D93E05E
:10124000391240E06B897C898D899E898C0D9D1DAA
:101250000E946616EFEFCE1ADE0A29893A892C150C
:101260003D0551F08E01075F1F4FCE0101967C01B5
:10127000312C7C2C2D2CB9CF9FEFA91AB90AEAA1E9
:10128000FBA1AE16BF06B9F08F8D98A19C012E5C14
:101290003F4F3A8B298B6C01AF8AB88EECA1FDA130
:1012A000EA0DFB1DFC8BEB8B298D3A8D281B390B2E
:1012B0003E8B2D8BD7CF3F8DE32E330FFF0889A1B7
:1012C000082F880F110B81E00E94B50489E190E09E
:1012D0000E947A050E94B303ED8DFE8D3196FE8F3C
:1012E000ED8FF98DFF8F2A8D28A33B8D39A3DC8CE0
:1012F000815C8F3708F45ACFA5960FB6F894DEBFFD
:101300000FBECDBFDF91CF911F910F91FF90EF9056
:10131000DF90CF90BF90AF909F908F907F906F9015
:101320005F904F903F902F9008951F93CF93DF933E
:10133000C0E210EBD1E0DC0F8C2F0E94C317DF3727
:1013400021F0D03E20F0C0E203C0C12F01C0CD2F5C
:1013500084E690E00E947A050E94B303815C8F3797
:1013600048F3DF91CF911F9108957F928F929F92C2
:10137000AF92BF92CF92DF92EF92FF920F931F93A3
:10138000CF93DF930E94F115813428F46894882468
:1013900086F8912C04C0812C6894992496F80F2E1D
:1013A000F4E6CF2ED12CF02DE12CF12CC0E0D0E0D2
:1013B0000F2EF8E17F2EF02D780C0E949A03A82EB4
:1013C000880FBB080E94B303082F880F110B682DEC
:1013D000892D0E94BE17C50180589F4F0E94661834
:1013E000672D892D0E94BE17C80180589F4F0E940B
:1013F00066186E2D8C2F0E941219E501DD230CF466
:101400002396D595C795D595C795A096B801112374
:1014100014F46D5F7F4F75956795759567957B01A2
:1014200080E2E80EF11C4AE551E06E2D8C2F0E94FF
:10143000D01801E020E230E04FE350E060E270E0DD
:1014400080E090E00E94D7162FE330E040E250E0C9
:1014500060E070E080E290E00E94D71682E390E0C6
:101460000E947A0581E0C81AD10809F0A6CFDF9161
:10147000CF911F910F91FF90EF90DF90CF90BF9091
:10148000AF909F908F907F9008950F931F93CF936D
:10149000DF93C0E0D0E010E00E94F11281111BC088
:1014A0000E94B303815C8F37F8F41F5F1536A0F3F9
:1014B000C0E0D0E0F1CF21960E94DE12F8018193C6
:1014C0008F01C115F4E0DF074CF080E090E00E944E
:1014D0007A05C0E0D0E08E01085A1E4F0E94F1123A
:1014E0008111E9CF10E0D8CFDF91CF911F910F91FB
:1014F0000895FF920F931F93CF93DF93C0E0D0E046
:1015000000E010E0F12C0E94F11281113BC00E941A
:10151000B303815C8F37E0F5F39424E62F1598F739
:1015200000E010E0F0CF0E94DE1298E0D695C7955B
:10153000D695C79580FDD06C86959150B9F7D801A6
:10154000A852BE4FDC93F801E85AFE4FC0838C913D
:10155000DF01AF57BF4F8C9380818183C801029612
:101560009C012F773327232B11F480589F4F81152F
:1015700024E0920734F080E090E00E947A0580E059
:1015800090E08C010E94F1128111CDCFF12CBBCFE4
:10159000DF91CF911F910F91FF900895CF93C3E0FA
:1015A0000E94F112811139C00E94B303815C8F3710
:1015B000B8F338C00E94DE1290E2C99FB001112436
:1015C0009B012C5F3F4FFB01E85AFE4F6C5D7F4F44
:1015D0009FE088236CF44081492B40834181492B53
:1015E00041834281492B42834381492B43830DC070
:1015F0009095408149234083418149234183428121
:1016000049234283438149234383880F2C5F3F4F03
:10161000349626173707E9F6C1500E94F11281115E
:10162000C9CFBECFCF910895DF92EF92FF920F9373
:101630001F93CF93DF9381EC90E00E94561982E2D2
:101640008093800089E18093810010928500109240
:10165000840080918600909187009695879590935D
:101660008B0080938A00229ACAE4D1E01BE20F2EFD
:10167000F6E9DF2EF02DE12C0F2EF8E9FF2EF02DEC
:101680000AE36CE088E00E94BE17CE010E94661853
:101690000E94B303815C8F37C8F40E949A038102D1
:1016A000912D11249595959587FD9395C90FD11D81
:1016B00097FDDA95C639D10514F4CD2DDE2DC93943
:1016C0008AE3D807F4F2CF2DD02FDBCF2298DF9119
:1016D000CF911F910F91FF90EF90DF900895CF93DE
:1016E000DF93D82FCDEC8C9FC12D1124C695C695C4
:1016F000C69580E38C0F0E94C317CC0F8C2F880FE8
:10170000880FC80F8D2F8C1B805D0E94C317DF913F
:10171000CF9108954F925F926F927F928F929F9296
:10172000AF92BF92CF92DF92EF92FF920F931F93EF
:10173000CF93DF938BEA90E00E945619C09132015B
:1017400011E0D0E0C12CD12C760101E00F2EF0E6A3
:101750004F2EFAEE5F2E612C712CF02D0F2EF8EE2D
:101760008F2EF3E09F2EA12CB12CF02D4BC010E05A
:1017700080913201C81709F444C0CF5FDD2329F0FE
:1017800080E1C80ED11CE11CF11C6CE080E00E94DD
:10179000BE17C701B601A30192010E949C19822FB6
:1017A0000E946F0B8AE30E94C317C701B601A5010F
:1017B00094010E949C19CA01B9012CE330E040E079
:1017C00050E00E949C19862F0E946F0B8AE30E94B2
:1017D000C317C701B6012AE030E040E050E00E94A4
:1017E0009C19CA01B90124E630E040E050E00E94B3
:1017F0009C19862F0E946F0B80E090E00E947A0572
:1018000001C0C82F0E94B303815C8F3728F50E9466
:101810009A03815C8F3708F4AACF1111A9CFD02782
:1018200039F413C0CF5F102FC12CD12C7601A8CF73
:10183000809132018C13F6CFC82F102FC12CD12CE0
:101840007601E0CFCF5F102FA0CF80913201C81377
:10185000F9CFC82F102FD6CFDF91CF911F910F91C5
:10186000FF90EF90DF90CF90BF90AF909F908F90C0
:101870007F906F905F904F9008952F923F924F927C
:101880005F926F927F928F929F92AF92BF92CF9210
:10189000DF92EF92FF920F931F93CF93DF9300D0CD
:1018A00000D0CDB7DEB70E94F115813420F420E4DA
:1018B0002983812C04C019826894882486F80E94A8
:1018C000F71542983A986981645F88E1880D8A83A8
:1018D0000E94BE1785EA90E00E9456196981605DFA
:1018E0008A810E94BE1780EA90E00E945619912CCE
:1018F00099819C5D9A830F2EFAE02F2E312CF02DCA
:101900000F2E44244A94F3E05F2EF02D0F2EFFE3B8
:10191000AF2EB12CF02D0F2EF5E06F2E712CF02D87
:10192000C12CD12C0E94B303815C8F3708F094C086
:1019300080E00E94B50482E00E9486038C019C0135
:10194000A4EFB1E00E94C1192FEF33E040E050E076
:101950000E949C193C832B836981882D0E94BE17AD
:10196000C8010E9466186A81882D0E94BE178B816B
:101970009C8164E670E00E94881980E3860F0E94D3
:10198000C3178EE20E94C3178B819C81B1010E9414
:1019900088198B83CB01B1010E948819805D0E9458
:1019A000C3178B81805D0E94C3172FE3209FC00166
:1019B000219F900D1124B2010E947419C501861B4C
:1019C000970BBC0141E08DE390E00E946616939472
:1019D00090FE1AC03DC0C80101969C838B83B7015D
:1019E0000E940416482FB701C8010E9466160B8199
:1019F0001C810E33110579F79FEFE91AF90A20E4EB
:101A0000E216F10419F405C0E12CF12C0C2D1D2D6A
:101A1000E2CF892D8370A1F41C821B828B819C8173
:101A2000B3010E94881941E08DE390E00E946616A0
:101A30008B819C81CF969C838B838A37914071F7F1
:101A400081E00E94B50489E190E00E947A056ACFA6
:101A5000892D837009F3F4CF0F900F900F900F90A2
:101A6000DF91CF911F910F91FF90EF90DF90CF907A
:101A7000BF90AF909F908F907F906F905F904F90AE
:101A80003F902F9008952F923F924F925F926F92C6
:101A90007F928F929F92AF92BF92CF92DF92EF92FE
:101AA000FF920F931F93CF93DF9300D01F92CDB778
:101AB000DEB70E94F7150E94F11586958983482E9E
:101AC000512C812C912C00E010E01B821A820F2EE9
:101AD000F9E12F2E312CF02D0E94B303815C8F375A
:101AE00008F079C08A819B818017910724F49C01BA
:101AF00028593E4F02C02A813B81C80144962817CD
:101B00003907D4F4045511409FEF891A990A8DE6DC
:101B1000881681E0980614F0812C912C28E631E09B
:101B2000D4010E94D0192DE631E040E050E00E943F
:101B30009C193B832A8301C08C018A819B810E946E
:101B4000D7156CE070E00E9488197B01E40CF51C4D
:101B50008A819B810E949E156CE070E00E9488192A
:101B60006B0190E2C90ED11CC8010E94D715B101CA
:101B70000E9488193B016E0C7F1CC8010E949E15B3
:101B8000B1010E9488195B01AC0CBD1C80E00E9471
:101B9000B5040E94F71560E080E00E94BE17C40102
:101BA0000E9466184AE551E060E289810E94D018DF
:101BB0004AE551E06C2D8E2D0E94D0184AE551E087
:101BC0006A2D862D0E94D01881E00E94B504C101C3
:101BD0000E947A0581CF0F900F900F90DF91CF91E7
:101BE0001F910F91FF90EF90DF90CF90BF90AF903B
:101BF0009F908F907F906F905F904F903F902F902D
:101C000008954F925F926F927F928F929F92AF92C0
:101C1000BF92CF92DF92EF92FF920F931F93CF93D9
:101C2000DF936894442446F8512C00E410E0689453
:101C3000662462F8712C0F2EFCE78F2EF02D912C6C
:101C40000F2EF9E1AF2EF02DB12C0F2EF7E6CF2E8F
:101C5000F02DD12C0F2EFAEAFF2EF02DEE24EA946F
:101C60000E94B303815C8F3708F06FC00E949A0313
:101C700088230CF4815E8595859585958595859558
:101C8000E201C80FD11D87FDDA95C430D10514F4E7
:101C9000C62DD72D2E01CD37D10514F0482C592C47
:101CA00087E00E94881290E00397080F191F0931FE
:101CB000110514F40A2D1B2D0836110514F00C2DF6
:101CC0001D2D80E00E94B50428ED34E0E8E5F1E048
:101CD0000AC04D914993A217B307D9F7205831098B
:101CE0002E173F0729F0D901A058B109E901F1CF1A
:101CF00080E090E0980124513109B8016C5E7F4F7B
:101D0000A901821793071CF06817790714F4F08271
:101D100001C01082019631968038910589F7FA0149
:101D2000E85AFE4FE082F801E85AFE4FE48A4AE59D
:101D300051E060E2842D0E94D01881E00E94B50439
:101D400082E390E00E947A058BCFDF91CF911F91C3
:101D50000F91FF90EF90DF90CF90BF90AF909F904A
:101D60008F907F906F905F904F9008952F923F9249
:101D70004F925F926F927F928F929F92AF92BF929B
:101D8000CF92DF92EF92FF920F93CF93DF93CDB775
:101D9000DEB728970FB6F894DEBF0FBECDBF0E9406
:101DA000F115282F30E03A8329830E94F415682E1C
:101DB000712CE981FA81F595E7956301D594C79473
:101DC00089819A8164E170E00E9488199B01898170
:101DD0009A8165E070E00E94881946EF4203C001D5
:101DE000439F900D1124DC01AE0FBF1FBC83AB835A
:101DF0004603C001479F900D1124AC014E0F5F1F99
:101E00005E834D83412C512C49015B0151E0651AE1
:101E1000710889819A8101979A8389830E94B3030B
:101E2000815C8F3708F064C0C20101960AF40F96F6
:101E30008F3091052CF02C01AFE04A1A510801C0F7
:101E40002C0180E00E94B5040E94F715ED80FE8011
:101E50002B813C810F2EF4E12F2E312CF02D388771
:101E60002F8301E09301A701B6018F8198850E941D
:101E7000D71631E0231A31084F815885480D591D76
:101E800058874F83EA0CFB1C2114310451F772016F
:101E9000C201865A9F4F98878F83C7010E949E1563
:101EA0009C0121503F4F2C9DC0012D9D900D3C9DCC
:101EB000900D11246FEF70E00E9488196C0D7D1D4C
:101EC00001E09B0149815A8180E090E00E94D71691
:101ED0009FE0E90EF11CAF81B885AE15BF05E9F6AC
:101EE00081E00E94B50484E690E00E947A0596CFD6
:101EF00028960FB6F894DEBF0FBECDBFDF91CF910D
:101F00000F91FF90EF90DF90CF90BF90AF909F9098
:101F10008F907F906F905F904F903F902F9008959B
:101F2000CF92DF92EF92FF920F931F93CF93DF93A5
:101F3000E12CF12CC12CD12CFF2014F4EC2CFD2C25
:101F40008CEFE81683E0F80634F00F2EFBEFEF2E4F
:101F5000F3E0FF2EF02D8701C0E0C8010E94F919BF
:101F6000D82F6C2F80E00E94BE17C8010E94C618AF
:101F70008AE30E94C3178D2F0E94A9180F5F1F4F7D
:101F8000C45FCC3351F78C2D9D2D0E947A050E94A1
:101F9000F80382FF03C09FEFE91AF90A83FF03C029
:101FA00091E0E91AF108837039F2DF91CF911F9126
:101FB0000F91FF90EF90DF90CF900895EF92FF92F6
:101FC0000F931F93CF93DF93E12C6894FF24F6F8CF
:101FD0008701C0E0F801D4916C2F80E00E94BE1709
:101FE000C8010E94C6188AE30E94C3178D2F0E9461
:101FF000A9180F5F1F4FC45FCC3361F780E090E0FA
:102000000E947A050E94F80382FF03C0FFEFEF1AD7
:10201000FF0A83FF03C091E0E91AF1088370C1F25F
:10202000DF91CF911F910F91FF90EF9008952F9224
:102030003F924F925F926F927F928F929F92AF9258
:10204000BF92CF92DF92EF92FF920F931F93CF93A5
:10205000DF935C01862EFC018491882399F0712C1A
:102060007394C72CD12CF601EE0FFF1FEE0FFF1F4C
:10207000EE0FFF1FEC0DFD1DEA0DFB1DE491E111BC
:10208000EFCF03C0C12CD12C712C912C0F2EFFE46B
:102090005F2EF02D442443940F2EFDE06F2EF02D83
:1020A00080E00E94B5040E94F7150E94F415D82F15
:1020B000C4EFC80F6C2F8EE00E94BE178FEB93E029
:1020C0000E9456196BEF6D0F42EF53E087E00E94BC
:1020D000D018C59D212C112426942694871420F411
:1020E000891420F49A9402C0812C912CE82CF12CB4
:1020F000822D90E09701291931092817390754F0EA
:102100009394970129193109281739071CF0942C49
:102110009218980C222009F44BC0092D10E00C15E0
:102120001D050CF045C0E801CC0FDD1FCC0FDD1FF5
:10213000CC0FDD1FC00FD11FCA0DDB1D269C802DCB
:1021400011240F2EF3EF2F2EF02D280E312C08C066
:102150000F5F1F4FFDE03F0E29960C151D0544F53E
:10216000632D80E00E94BE17CE010E9456192310F5
:10217000EFCF1EC002E09E014FE750E0BE0180E0BD
:1021800090E00E94D7162196EC16FD0699F7842D53
:102190000E94B50480E090E00E947A050E94F80356
:1021A00080FD8A9481FD83948C7009F479CF0CC0F2
:1021B000E918F1086E9CE0016F9CD00D11247E019E
:1021C0008EE0E80EF11CD6CF0E94F715882DDF9126
:1021D000CF911F910F91FF90EF90DF90CF90BF9024
:1021E000AF909F908F907F906F905F904F903F90B7
:1021F0002F900895109227016091330184E291E0BD
:102200000E94171080933301682F81E090E00E94B4
:10221000011AF999FECF089560E087EF90E00E94DF
:10222000171080932701811103C00E943013089575
:10223000809133010E94FF120895CF9360E087EFF1
:1022400090E00E941710CFEFC80F0E94F71580E0B2
:1022500090E00E947A0580913301813031F0C8F01E
:10226000823041F0833059F00FC060E875E280E0C1
:1022700090E013C060E076E980E090E00EC060E09E
:1022800071EE80E090E009C060E072EC81E090E0E7
:1022900004C060E679E080E090E00E949C12C130CA
:1022A00039F018F0C23039F008C00E94450A05C064
:1022B0000E94790A02C00E94CE0A0E949712CF9112
:1022C0000895CF9360E08CED90E00E941710C82F26
:1022D00080913301813031F0C8F0823041F0833099
:1022E00059F00FC060E875E280E090E013C060E054
:1022F00076E980E090E00EC060E071EE80E090E072
:1023000009C060E072EC81E090E004C060E679E032
:1023100080E090E00E949C1280E990E00E945619B3
:102320000E94B303815C8F3750F012C00E94DE120E
:10233000CC2319F00E94A91802C00E94C3170E9462
:10234000F1128111F3CF80E090E00E947A05E8CF8E
:102350000E949712CF9108950E9463150E948412E3
:102360000E94301380E090E00E94F919843008F058
:1023700080E00E94DF1581E090E00E94F9198093CF
:102380003301853018F081E080933301789482E046
:102390008093800089E1809381008AEF91E090939F
:1023A000870080938600EFE6F0E080818160808383
:1023B000B09A0E94860410E004E1612F81EF92E060
:1023C0000E941710182FC82FD0E0CE01880F991F38
:1023D000880F991F880F991F8C0F9D1F8F509D4F3D
:1023E0000E94561960E180E00E94BE170C9FC00158
:1023F0000D9F900D11248F599E4F0E9456190E94D7
:10240000F415C82F64EF680F8EE00E94BE178FEBA3
:1024100093E00E9456196BEF6C0F42EF53E087E098
:102420000E94D01880E090E00E947A050E94F80394
:10243000837019F60E94F7150E94EB03812F90E03C
:102440008431910508F055C0FC01EC5CFF4F0C9401
:10245000BB190E94B60E4DC00E9495094AC00E9449
:10246000C80747C00E94B20544C00E948A0B41C001
:102470000E94B5093EC00E943D0C3BC00E94611104
:1024800038C00E94511335C00E94760832C00E94A5
:10249000140B2FC00E94010E2CC00E94430D29C0B6
:1024A0000E94DC15C82FD0E02196C370D078DD23C0
:1024B00024F42197CC6FDF6F21968C2F0E94DF15BB
:1024C0006C2F80E090E00E94011AF999FECF11C0B4
:1024D0000E94900F0EC00E94FA100BC00E940C11B7
:1024E00008C00E94DE0F05C00E94111A02C00E949F
:1024F0001D110E94F71580ED93E00E94561980E2AD
:1025000093E00E947A0559CF14BC81E085BD0895FF
:10251000682F80912801880F8F5F8093280196B5DE
:10252000890F809328010E946819892F08951092BD
:10253000C1001092290108959B01AC0160E472E48E
:102540008FE090E00E949C1921503109589A5098D0
:1025500010925701109256013093C5002093C40089
:10256000E0ECF0E080818260808380E98093C100AC
:1025700081E08093290108951F920F920FB60F9268
:1025800011248F939F93EF93FF93E091570181E084
:102590008E0F809357019091C600F0E0EA5CFE4FE9
:1025A0009083803210F010925701FF91EF919F912C
:1025B0008F910F900FBE0F901F901895809157012B
:1025C000E09156018E17F1F391E09E0F9093560122
:1025D000F0E0EA5CFE4F8081903210F010925601DC
:1025E000089580912901813041F420915701909103
:1025F0005601291303C080E0089580E00895239ACE
:102600002B9A14BC8230B9F028F4882341F0813031
:1026100061F022C08330A9F08430C9F01DC083E08E
:1026200085BD84E380932B0117C082E085BD88E6D9
:1026300080932B0111C081E085BD80ED80932B013B
:102640000BC081E085BD8AE880932B0105C081E045
:1026500085BD85E480932B0181E080932A01089554
:102660002B982B9A10922A01089590912A01992370
:10267000B9F0282F30E03F6F220F331FF8944BE062
:1026800016BC20FF02C02B9A01C02B9836952795C7
:1026900090912B0186B58917E8F3415089F778941A
:1026A00008952F923F924F925F926F927F928F92F6
:1026B0009F92AF92BF92CF92DF92EF92FF920F93D1
:1026C0001F93CF93DF93CDB7DEB7C154D1090FB6B7
:1026D000F894DEBF0FBECDBF0E94F71566E18CE017
:1026E0000E94BE1782E094E00E94561920E229ABB6
:1026F0001EAE1DAE3EE139AF1E018FE1280E311C2A
:1027000091E09FAF48E054E06CE389A90E94D018A3
:10271000A101DE015096FE01319620E030E0BF01BC
:10272000C90183709078992324F401978C6F9F6F6F
:102730000196982F990F890F880F880F885FFB01EA
:102740008193BF01C90133230CF4039695958795B6
:1027500095958795982F990F890F880F880F8C5F13
:102760008D93FA011192AF012F5F3F4F2F3031054A
:10277000B9F688EE93E00E948B15FFEFFDAB2FEFCB
:1027800022962FAF229766246A943FEF3CAF1AAA95
:1027900018AAB62C80E00E94B5040E94F7150E948A
:1027A0009A03982FE9E88E02812D1124890F8595CF
:1027B000859585958595859597FD8395F9A98F0FC5
:1027C00084300CF484E089AB8D3314F02CE329AB16
:1027D00039A921963FAF219748E054E06CE3832F5D
:1027E0000E94D018BB204CF0BA94BA944BE254E04B
:1027F0006B2D8CAD0E94D01806C089A98CAF0F2E0E
:10280000FCE3BF2EF02D9DA99923CCF48FE00E940C
:10281000881290E0E0E1F0E0EC0FFD1FE80FF91FF7
:1028200020812F3FE1F0E1E0F0E0EC0FFD1FE80F29
:10283000F91F308122963FAF22972DAB10C08DA992
:102840008F5F8DAB80344CF44DE154E0682F2296BD
:102850008FAD22970E94D01802C09FEF9DABE8A9D0
:102860008E2F90E00196F9AD6F2F70E00E948819CD
:1028700088AB811109C02AA9822F90E0019668E1F6
:1028800070E00E9488198AABCE0101963C0181015B
:10289000FE0170964F011EAAA12CFAA9F170FFABA0
:1028A00018AE2FA938AD2F5F3F4FC901880F991F70
:1028B000880F991F880F991F821B930B9C01285F1B
:1028C0003B4F3CAB2BAB8CAD082E000C990B9BAF58
:1028D0008AAF5A2C4B2C7401F401B080FFEFBF1665
:1028E00009F46BC06301F301A08053941FA70EA7E6
:1028F000F8018081882381F0DD24DA94D80ED0821B
:1029000044E254E06B2D8A2D0E94D018D11055C09E
:102910002FEFF401208351C0842D042C000C990B5F
:102920008B199109B7FC93950E9448190597FCF4FF
:102930008AAD9BAD8A199109A7FC93950E9448190D
:102940000597ACF48DAD9EAD8F30E7E29E071CF489
:1029500001969EAF8DAFF9ADF33010F0F150F9AFA5
:102960002FE0EEA5FFA5208344244A9426C038A971
:10297000311119C08AA98A3018F4A394A3940EC007
:102980009AA99C3018F4B394B39408C0EAA9E6312C
:1029900018F4AA94AA9402C0B394B394FEE3FB156E
:1029A00014F42FAD2EABF601A082F701B0824BA933
:1029B0005CA96B2D8A2D0E94D018FFEF8F1A9F0AF9
:1029C0000F5F1F4F2FEF621A720A8214930409F0EF
:1029D00082CFA52CB42C3DA9832F330F990BCC9714
:1029E0000E94481905977CF42296EFAD22978E2F0E
:1029F000EE0F990BF9A98F1B9109F7FD93950E9492
:102A000048190597D4F181E00E94B50484E190E073
:102A10000E948B15A11007C029AD285F29AF3EA9E0
:102A2000332341F104C08EA9882309F4B3CE6CE3AB
:102A300021968FAD21970E94121944E254E06CE375
:102A400021968FAD21970E94D0186CE080E00E9403
:102A5000BE1789EF93E00E94561960E284E00E945D
:102A6000BE178DAD9EAD0E94661888EB9BE00E945C
:102A70008B150FC00E94F71545CE81E00E94B5046A
:102A800084E190E00E948B15552089F291E09EAB85
:102A9000CACFCF5BDF4F0FB6F894DEBF0FBECDBFFE
:102AA000DF91CF911F910F91FF90EF90DF90CF902A
:102AB000BF90AF909F908F907F906F905F904F905E
:102AC0003F902F90089510922E0110922D0108959D
:102AD0008091320190912C018917E1F080932C01B3
:102AE00080912D0190912E01181619069CF4809169
:102AF0002D0190912E01409790932E0180932D01EE
:102B000080912D0190912E01992324F410922E0191
:102B100010922D01089590932E0180932D018091A4
:102B20002D0190912E01892B41F00E946815809112
:102B30002D0190912E01892BC1F7089599231CF442
:102B400088599E4FEAF3883621E0920734F0885680
:102B50009140883621E09207D4F78E3021E0920729
:102B60004CF0FC01EC5DFC4F849190E091958195D7
:102B700091090895843B91053CF0E0E4F5E0E81B01
:102B8000F90B849190E008958A35910534F0FC01A9
:102B9000E852FC4F849190E00895ECE8F4E0E81BE3
:102BA000F90B849190E09195819591090895865A49
:102BB0009F4F0E949E150895809131010895809342
:102BC000310180FF07C080E48093110180E8809389
:102BD0001001089580E88093110180E48093100132
:102BE0000895809111010895809110010895E8E5FC
:102BF000F1E088E595E01192E817F907E1F7109206
:102C0000300110922F01089599230CF457C07723B7
:102C10000CF456C02091110130E0821793070CF09C
:102C200051C02091100130E0621773070CF04CC0C6
:102C300020913101213021F0E8F0223041F014C020
:102C40002FE730E0261B370BBC01C90113C02FE36F
:102C500030E0A901461B570BBA012FE730E0A9016C
:102C6000481B590BCA0106C02FE330E0281B390B63
:102C7000CB01B9019B01772314F4295F3F4F3595B0
:102C8000279535952795359527953695322F222707
:102C900037952795285A3E4FF901E80FF91F6770BD
:102CA000772721E030E002C0220F331F6A95E2F758
:102CB0008081282381E049F480E0089580E0089530
:102CC00080E0089580E0089580E0089599230CF451
:102CD0006DC077230CF46AC02091110130E0821797
:102CE00093070CF063C02091100130E06217730766
:102CF0000CF05CC020913101213021F0E8F022304D
:102D000041F014C02FE730E0261B370BBC01C9018E
:102D100013C02FE330E0D901A61BB70BBD012FE78D
:102D200030E0F901E81BF90BCF0106C02FE330E0DA
:102D3000281B390BCB01B901FB01E770FF2721E00C
:102D400030E0D90102C0AA0FBB1FEA95E2F7FD01EE
:102D50009B01772314F4295F3F4F359527953595CF
:102D60002795359527953695322F22273795279524
:102D7000820F931F413039F4DC01A85ABE4F2C91C9
:102D80002E2B2C930895411109C0DC01A85ABE4F87
:102D90002E2F2095EC912E232C930895423031F460
:102DA000DC01A85ABE4F2C912E272C9308952F9208
:102DB0003F924F925F926F927F928F929F92AF92CB
:102DC000BF92CF92DF92EF92FF920F931F93CF9318
:102DD000DF9300D01F92CDB7DEB79B838A837B0140
:102DE0006A01590109832A01481A590A3AF451948F
:102DF0004194510866246A94762C03C06624639437
:102E0000712C15012E183F0832F4319421943108A9
:102E10000FEF1FEF02C001E010E04981B7018A8186
:102E20009B810E9466162414350424F0AE14BF045E
:102E300049F548C08A819B81C816D90609F442C069
:102E4000220C331C5201AA0CBB1C812C912C8A81B0
:102E50009B81860D971D9B838A83820C931C84140F
:102E6000950424F0E00EF11E8A189B084981B701F1
:102E70008A819B810E9466168A819B81C816D90629
:102E800031F720C06201CC0CDD1C2101440C551C23
:102E9000812C912CE00EF11E8C0C9D1C821493044D
:102EA00044F08A819B81860D971D9B838A838418B9
:102EB00095084981B7018A819B810E946616AE14EC
:102EC000BF0441F70F900F900F90DF91CF911F91AA
:102ED0000F91FF90EF90DF90CF90BF90AF909F90B9
:102EE0008F907F906F905F904F903F902F900895BC
:102EF0006F927F928F929F92AF92BF92CF92DF920A
:102F0000EF92FF920F931F93CF93DF938090100166
:102F1000882029F100E010E0662E712CA82EB12C3B
:102F2000912CE0901101EE20A9F0C0E0D0E0680102
:102F3000C60CD71CF12CB601C5018C0F9D1F0E9439
:102F40000416482FB801CE010E9466162196EC1691
:102F5000FD0689F70F5F1F4F8016910611F7DF916D
:102F6000CF911F910F91FF90EF90DF90CF90BF9086
:102F7000AF909F908F907F906F90089580933001D5
:102F800060932F0108953F924F925F926F927F92CC
:102F90008F929F92AF92BF92CF92DF92EF92FF9269
:102FA0000F931F93CF93DF93382E2AE0821751F0AF
:102FB0002091300130E08091110190E00897821754
:102FC00093073CF41092300180912F01845F80932D
:102FD0002F01C0911001CC5060912F01C61730F421
:102FE0006C1B80E00E947817C0932F013FE13315DE
:102FF00008F05AC0832D90E080974C01880C991CF2
:10300000880D991DFC01E357FB4F4F0140902F01A4
:10301000512CF401849150FC03C082958F7003C041
:10302000FFEF8F1A9F0A8F70782ED091300168942D
:10303000662463F86D0EC42CD12C56012FEFA21A12
:10304000B20A73FACC27C0F90D2F10E04C2FB6014D
:10305000C8010E94661678013FEFE31AF30A4C2F6D
:10306000B601C7010E9466164C2FB501C8010E9427
:1030700066164C2FB501C7010E946616770CDE5FFD
:103080006D12DFCF43944394539486E05812C1CF1E
:10309000809130019FE9931520F0885F8093300183
:1030A00003C0865F80933001DF91CF911F910F9114
:1030B000FF90EF90DF90CF90BF90AF909F908F9058
:1030C0007F906F905F904F903F900895EF92FF92A6
:1030D0000F931F93CF93DF937C0105E010E0C0E1D5
:1030E000D7E2C701BE010E947419AB019B01ADEC90
:1030F000BCEC0E94C11996958795969587959695F3
:1031000087959C01220F331F880F991F880F991FE5
:10311000880F991F820F931F9A01281B390BC90131
:10312000805D0E94C3179E01ADECBCEC0E94C119EA
:10313000EC01D695C795D695C795D695C7950150FC
:10314000110979F6DF91CF911F910F91FF90EF90C8
:1031500008950F931F93CF93DF93082FC2E0D0E021
:1031600010E1802F612F0E9468198F708A3010F44F
:10317000805D01C0895C0E94C31712951F70219762
:1031800081F7DF91CF911F910F910895CF93C82FB1
:10319000892F0E94A9188C2F0E94A918CF910895F9
:1031A0007F928F929F92AF92BF92CF92DF92EF92D7
:1031B000FF920F931F93CF93DF93835063504A0185
:1031C00097E0890E911C8A01A62EB12CA41AB50A8B
:1031D000C82ED12CF8017490C0E0D0E07501E00E4B
:1031E000F11E76FE07C041E0B701C6018C0F9D1F9E
:1031F0000E946616770C2196C730D10591F70F5FB4
:103200001F4F8016910631F7DF91CF911F910F91DB
:10321000FF90EF90DF90CF90BF90AF909F908F90F6
:103220007F900895AF92BF92CF92DF92EF92FF927C
:103230000F931F93CF93DF9383506350C12CD12CF6
:10324000A62EB12CE82EF12C12C040E0B801C70127
:103250008C0F9D1F0E9466162196C730D105A9F7D5
:103260008FEFC81AD80A87E0C816D10431F0C0E041
:10327000D0E085010C0D1D1DE8CFDF91CF911F918E
:103280000F91FF90EF90DF90CF90BF90AF90089597
:1032900099231CF4919581959109089599231CF027
:1032A00081E090E008958FEF9FEF0895CF93DF9333
:1032B000EC012196FC018491882339F00E94C31708
:1032C000FE01849121968111F9CFDF91CF9108956C
:1032D000991B79E004C0991F961708F0961B881F68
:1032E0007A95C9F780950895AA1BBB1B51E107C0C9
:1032F000AA1FBB1FA617B70710F0A61BB70B881F86
:10330000991F5A95A9F780959095BC01CD01089514
:1033100097FB072E16F4009407D077FD09D00E9482
:10332000741907FC05D03EF4909581959F4F089540
:10333000709561957F4F0895052E97FB1EF40094BC
:103340000E94B31957FD07D00E94D71907FC03D07C
:103350004EF40C94B31950954095309521953F4FFC
:103360004F4F5F4F089590958095709561957F4F71
:103370008F4F9F4F0895EE0FFF1F0590F491E02DA2
:103380000994A29FB001B39FC001A39F700D811D3E
:103390001124911DB29F700D811D1124911D08955E
:1033A0000E94C119B7FF0895821B930B0895A1E2F3
:1033B0001A2EAA1BBB1BFD010DC0AA1FBB1FEE1FAF
:1033C000FF1FA217B307E407F50720F0A21BB30BFA
:1033D000E40BF50B661F771F881F991F1A9469F776
:1033E00060957095809590959B01AC01BD01CF01D2
:1033F0000895F999FECF92BD81BDF89A992780B5BD
:103400000895262FF999FECF1FBA92BD81BD20BD28
:103410000FB6F894FA9AF99A0FBE01960895F894A7
:02342000FFCFDC
:10342200CF9360E070E4A0E0B0E0C3E041E055E09B
:10343200FB01C0935700E89507B600FCFDCF9B0146
:1034420020583F4FFB01CD010C0140935700E895F6
:103452001124019632962E173F07B1F7A05CBF4F99
:10346200FB0150935700E89507B600FCFDCFB90168
:1034720021153244E9F681E180935700E895CF9116
:023482000895AB
:1034840040280006400106B40006280006FFFFFF9E
:1034940040800001010100FFFFFFFFFF0001010167
:0234A40000FF27
:00000001FF
